{
  "_format": "hh-sol-artifact-1",
  "contractName": "NFT",
  "sourceName": "contracts/NFT.sol",
  "abi": [
    {
      "inputs": [],
      "stateMutability": "nonpayable",
      "type": "constructor"
    },
    {
      "anonymous": false,
      "inputs": [
        {
          "indexed": true,
          "internalType": "address",
          "name": "owner",
          "type": "address"
        },
        {
          "indexed": true,
          "internalType": "address",
          "name": "approved",
          "type": "address"
        },
        {
          "indexed": true,
          "internalType": "uint256",
          "name": "tokenId",
          "type": "uint256"
        }
      ],
      "name": "Approval",
      "type": "event"
    },
    {
      "anonymous": false,
      "inputs": [
        {
          "indexed": true,
          "internalType": "address",
          "name": "owner",
          "type": "address"
        },
        {
          "indexed": true,
          "internalType": "address",
          "name": "operator",
          "type": "address"
        },
        {
          "indexed": false,
          "internalType": "bool",
          "name": "approved",
          "type": "bool"
        }
      ],
      "name": "ApprovalForAll",
      "type": "event"
    },
    {
      "anonymous": false,
      "inputs": [
        {
          "indexed": true,
          "internalType": "address",
          "name": "previousOwner",
          "type": "address"
        },
        {
          "indexed": true,
          "internalType": "address",
          "name": "newOwner",
          "type": "address"
        }
      ],
      "name": "OwnershipTransferred",
      "type": "event"
    },
    {
      "anonymous": false,
      "inputs": [
        {
          "indexed": true,
          "internalType": "address",
          "name": "from",
          "type": "address"
        },
        {
          "indexed": true,
          "internalType": "address",
          "name": "to",
          "type": "address"
        },
        {
          "indexed": true,
          "internalType": "uint256",
          "name": "tokenId",
          "type": "uint256"
        }
      ],
      "name": "Transfer",
      "type": "event"
    },
    {
      "inputs": [],
      "name": "TOTAL_SUPPLY",
      "outputs": [
        {
          "internalType": "uint256",
          "name": "",
          "type": "uint256"
        }
      ],
      "stateMutability": "view",
      "type": "function"
    },
    {
      "inputs": [
        {
          "internalType": "address",
          "name": "to",
          "type": "address"
        },
        {
          "internalType": "uint256",
          "name": "tokenId",
          "type": "uint256"
        }
      ],
      "name": "approve",
      "outputs": [],
      "stateMutability": "nonpayable",
      "type": "function"
    },
    {
      "inputs": [
        {
          "internalType": "address",
          "name": "owner",
          "type": "address"
        }
      ],
      "name": "balanceOf",
      "outputs": [
        {
          "internalType": "uint256",
          "name": "",
          "type": "uint256"
        }
      ],
      "stateMutability": "view",
      "type": "function"
    },
    {
      "inputs": [],
      "name": "baseTokenURI",
      "outputs": [
        {
          "internalType": "string",
          "name": "",
          "type": "string"
        }
      ],
      "stateMutability": "view",
      "type": "function"
    },
    {
      "inputs": [
        {
          "internalType": "uint256",
          "name": "tokenId",
          "type": "uint256"
        }
      ],
      "name": "getApproved",
      "outputs": [
        {
          "internalType": "address",
          "name": "",
          "type": "address"
        }
      ],
      "stateMutability": "view",
      "type": "function"
    },
    {
      "inputs": [
        {
          "internalType": "address",
          "name": "owner",
          "type": "address"
        },
        {
          "internalType": "address",
          "name": "operator",
          "type": "address"
        }
      ],
      "name": "isApprovedForAll",
      "outputs": [
        {
          "internalType": "bool",
          "name": "",
          "type": "bool"
        }
      ],
      "stateMutability": "view",
      "type": "function"
    },
    {
      "inputs": [
        {
          "internalType": "address",
          "name": "recipient",
          "type": "address"
        }
      ],
      "name": "mintTo",
      "outputs": [
        {
          "internalType": "uint256",
          "name": "",
          "type": "uint256"
        }
      ],
      "stateMutability": "nonpayable",
      "type": "function"
    },
    {
      "inputs": [],
      "name": "name",
      "outputs": [
        {
          "internalType": "string",
          "name": "",
          "type": "string"
        }
      ],
      "stateMutability": "view",
      "type": "function"
    },
    {
      "inputs": [],
      "name": "owner",
      "outputs": [
        {
          "internalType": "address",
          "name": "",
          "type": "address"
        }
      ],
      "stateMutability": "view",
      "type": "function"
    },
    {
      "inputs": [
        {
          "internalType": "uint256",
          "name": "tokenId",
          "type": "uint256"
        }
      ],
      "name": "ownerOf",
      "outputs": [
        {
          "internalType": "address",
          "name": "",
          "type": "address"
        }
      ],
      "stateMutability": "view",
      "type": "function"
    },
    {
      "inputs": [
        {
          "internalType": "address",
          "name": "dest",
          "type": "address"
        }
      ],
      "name": "payments",
      "outputs": [
        {
          "internalType": "uint256",
          "name": "",
          "type": "uint256"
        }
      ],
      "stateMutability": "view",
      "type": "function"
    },
    {
      "inputs": [],
      "name": "renounceOwnership",
      "outputs": [],
      "stateMutability": "nonpayable",
      "type": "function"
    },
    {
      "inputs": [
        {
          "internalType": "address",
          "name": "from",
          "type": "address"
        },
        {
          "internalType": "address",
          "name": "to",
          "type": "address"
        },
        {
          "internalType": "uint256",
          "name": "tokenId",
          "type": "uint256"
        }
      ],
      "name": "safeTransferFrom",
      "outputs": [],
      "stateMutability": "nonpayable",
      "type": "function"
    },
    {
      "inputs": [
        {
          "internalType": "address",
          "name": "from",
          "type": "address"
        },
        {
          "internalType": "address",
          "name": "to",
          "type": "address"
        },
        {
          "internalType": "uint256",
          "name": "tokenId",
          "type": "uint256"
        },
        {
          "internalType": "bytes",
          "name": "_data",
          "type": "bytes"
        }
      ],
      "name": "safeTransferFrom",
      "outputs": [],
      "stateMutability": "nonpayable",
      "type": "function"
    },
    {
      "inputs": [
        {
          "internalType": "address",
          "name": "operator",
          "type": "address"
        },
        {
          "internalType": "bool",
          "name": "approved",
          "type": "bool"
        }
      ],
      "name": "setApprovalForAll",
      "outputs": [],
      "stateMutability": "nonpayable",
      "type": "function"
    },
    {
      "inputs": [
        {
          "internalType": "string",
          "name": "_baseTokenURI",
          "type": "string"
        }
      ],
      "name": "setBaseTokenURI",
      "outputs": [],
      "stateMutability": "nonpayable",
      "type": "function"
    },
    {
      "inputs": [
        {
          "internalType": "bytes4",
          "name": "interfaceId",
          "type": "bytes4"
        }
      ],
      "name": "supportsInterface",
      "outputs": [
        {
          "internalType": "bool",
          "name": "",
          "type": "bool"
        }
      ],
      "stateMutability": "view",
      "type": "function"
    },
    {
      "inputs": [],
      "name": "symbol",
      "outputs": [
        {
          "internalType": "string",
          "name": "",
          "type": "string"
        }
      ],
      "stateMutability": "view",
      "type": "function"
    },
    {
      "inputs": [
        {
          "internalType": "uint256",
          "name": "tokenId",
          "type": "uint256"
        }
      ],
      "name": "tokenURI",
      "outputs": [
        {
          "internalType": "string",
          "name": "",
          "type": "string"
        }
      ],
      "stateMutability": "view",
      "type": "function"
    },
    {
      "inputs": [
        {
          "internalType": "address",
          "name": "from",
          "type": "address"
        },
        {
          "internalType": "address",
          "name": "to",
          "type": "address"
        },
        {
          "internalType": "uint256",
          "name": "tokenId",
          "type": "uint256"
        }
      ],
      "name": "transferFrom",
      "outputs": [],
      "stateMutability": "nonpayable",
      "type": "function"
    },
    {
      "inputs": [
        {
          "internalType": "address",
          "name": "newOwner",
          "type": "address"
        }
      ],
      "name": "transferOwnership",
      "outputs": [],
      "stateMutability": "nonpayable",
      "type": "function"
    },
    {
      "inputs": [
        {
          "internalType": "address payable",
          "name": "payee",
          "type": "address"
        }
      ],
      "name": "withdrawPayments",
      "outputs": [],
      "stateMutability": "nonpayable",
      "type": "function"
    }
  ],
  "bytecode": "0x60a06040523480156200001157600080fd5b506040518060400160405280600981526020017f494e495445204e465400000000000000000000000000000000000000000000008152506040518060400160405280600581526020017f494e49544500000000000000000000000000000000000000000000000000000081525081600090805190602001906200009692919062000230565b508060019080519060200190620000af92919062000230565b505050604051620000c090620002c1565b604051809103906000f080158015620000dd573d6000803e3d6000fd5b5073ffffffffffffffffffffffffffffffffffffffff1660808173ffffffffffffffffffffffffffffffffffffffff1660601b8152505062000134620001286200016260201b60201c565b6200016a60201b60201c565b60405180602001604052806000815250600890805190602001906200015b92919062000230565b5062000353565b600033905090565b6000600660009054906101000a900473ffffffffffffffffffffffffffffffffffffffff16905081600660006101000a81548173ffffffffffffffffffffffffffffffffffffffff021916908373ffffffffffffffffffffffffffffffffffffffff1602179055508173ffffffffffffffffffffffffffffffffffffffff168173ffffffffffffffffffffffffffffffffffffffff167f8be0079c531659141344cd1fd0a4f28419497f9722a3daafe3b4186f6b6457e060405160405180910390a35050565b8280546200023e90620002ee565b90600052602060002090601f016020900481019282620002625760008555620002ae565b82601f106200027d57805160ff1916838001178555620002ae565b82800160010185558215620002ae579182015b82811115620002ad57825182559160200191906001019062000290565b5b509050620002bd9190620002cf565b5090565b610d09806200362e83390190565b5b80821115620002ea576000816000905550600101620002d0565b5090565b600060028204905060018216806200030757607f821691505b602082108114156200031e576200031d62000324565b5b50919050565b7f4e487b7100000000000000000000000000000000000000000000000000000000600052602260045260246000fd5b60805160601c6132b56200037960003960008181610ddc01526114f401526132b56000f3fe608060405234801561001057600080fd5b50600436106101425760003560e01c8063755edd17116100b8578063b88d4fde1161007c578063b88d4fde14610361578063c87b56dd1461037d578063d547cfb7146103ad578063e2982c21146103cb578063e985e9c5146103fb578063f2fde38b1461042b57610142565b8063755edd17146102bb5780638da5cb5b146102eb578063902d55a51461030957806395d89b4114610327578063a22cb4651461034557610142565b806330176e131161010a57806330176e13146101fd57806331b3eb941461021957806342842e0e146102355780636352211e1461025157806370a0823114610281578063715018a6146102b157610142565b806301ffc9a71461014757806306fdde0314610177578063081812fc14610195578063095ea7b3146101c557806323b872dd146101e1575b600080fd5b610161600480360381019061015c919061225f565b610447565b60405161016e919061271c565b60405180910390f35b61017f610529565b60405161018c9190612737565b60405180910390f35b6101af60048036038101906101aa91906122f2565b6105bb565b6040516101bc919061269a565b60405180910390f35b6101df60048036038101906101da9190612223565b610640565b005b6101fb60048036038101906101f6919061211d565b610758565b005b610217600480360381019061021291906122b1565b6107b8565b005b610233600480360381019061022e91906120b8565b61084e565b005b61024f600480360381019061024a919061211d565b6108d6565b005b61026b600480360381019061026691906122f2565b6108f6565b604051610278919061269a565b60405180910390f35b61029b6004803603810190610296919061208f565b6109a8565b6040516102a89190612979565b60405180910390f35b6102b9610a60565b005b6102d560048036038101906102d0919061208f565b610ae8565b6040516102e29190612979565b60405180910390f35b6102f3610b68565b604051610300919061269a565b60405180910390f35b610311610b92565b60405161031e9190612979565b60405180910390f35b61032f610b99565b60405161033c9190612737565b60405180910390f35b61035f600480360381019061035a91906121e7565b610c2b565b005b61037b6004803603810190610376919061216c565b610c41565b005b610397600480360381019061039291906122f2565b610ca3565b6040516103a49190612737565b60405180910390f35b6103b5610d4a565b6040516103c29190612737565b60405180910390f35b6103e560048036038101906103e0919061208f565b610dd8565b6040516103f29190612979565b60405180910390f35b610415600480360381019061041091906120e1565b610e8a565b604051610422919061271c565b60405180910390f35b6104456004803603810190610440919061208f565b610f1e565b005b60007f80ac58cd000000000000000000000000000000000000000000000000000000007bffffffffffffffffffffffffffffffffffffffffffffffffffffffff1916827bffffffffffffffffffffffffffffffffffffffffffffffffffffffff1916148061051257507f5b5e139f000000000000000000000000000000000000000000000000000000007bffffffffffffffffffffffffffffffffffffffffffffffffffffffff1916827bffffffffffffffffffffffffffffffffffffffffffffffffffffffff1916145b80610522575061052182611016565b5b9050919050565b60606000805461053890612be1565b80601f016020809104026020016040519081016040528092919081815260200182805461056490612be1565b80156105b15780601f10610586576101008083540402835291602001916105b1565b820191906000526020600020905b81548152906001019060200180831161059457829003601f168201915b5050505050905090565b60006105c682611080565b610605576040517f08c379a00000000000000000000000000000000000000000000000000000000081526004016105fc906128b9565b60405180910390fd5b6004600083815260200190815260200160002060009054906101000a900473ffffffffffffffffffffffffffffffffffffffff169050919050565b600061064b826108f6565b90508073ffffffffffffffffffffffffffffffffffffffff168373ffffffffffffffffffffffffffffffffffffffff1614156106bc576040517f08c379a00000000000000000000000000000000000000000000000000000000081526004016106b390612919565b60405180910390fd5b8073ffffffffffffffffffffffffffffffffffffffff166106db6110ec565b73ffffffffffffffffffffffffffffffffffffffff16148061070a5750610709816107046110ec565b610e8a565b5b610749576040517f08c379a000000000000000000000000000000000000000000000000000000000815260040161074090612839565b60405180910390fd5b61075383836110f4565b505050565b6107696107636110ec565b826111ad565b6107a8576040517f08c379a000000000000000000000000000000000000000000000000000000000815260040161079f90612939565b60405180910390fd5b6107b383838361128b565b505050565b6107c06110ec565b73ffffffffffffffffffffffffffffffffffffffff166107de610b68565b73ffffffffffffffffffffffffffffffffffffffff1614610834576040517f08c379a000000000000000000000000000000000000000000000000000000000815260040161082b906128d9565b60405180910390fd5b806008908051906020019061084a929190611e89565b5050565b6108566110ec565b73ffffffffffffffffffffffffffffffffffffffff16610874610b68565b73ffffffffffffffffffffffffffffffffffffffff16146108ca576040517f08c379a00000000000000000000000000000000000000000000000000000000081526004016108c1906128d9565b60405180910390fd5b6108d3816114f2565b50565b6108f183838360405180602001604052806000815250610c41565b505050565b6000806002600084815260200190815260200160002060009054906101000a900473ffffffffffffffffffffffffffffffffffffffff169050600073ffffffffffffffffffffffffffffffffffffffff168173ffffffffffffffffffffffffffffffffffffffff16141561099f576040517f08c379a000000000000000000000000000000000000000000000000000000000815260040161099690612879565b60405180910390fd5b80915050919050565b60008073ffffffffffffffffffffffffffffffffffffffff168273ffffffffffffffffffffffffffffffffffffffff161415610a19576040517f08c379a0000000000000000000000000000000000000000000000000000000008152600401610a1090612859565b60405180910390fd5b600360008373ffffffffffffffffffffffffffffffffffffffff1673ffffffffffffffffffffffffffffffffffffffff168152602001908152602001600020549050919050565b610a686110ec565b73ffffffffffffffffffffffffffffffffffffffff16610a86610b68565b73ffffffffffffffffffffffffffffffffffffffff1614610adc576040517f08c379a0000000000000000000000000000000000000000000000000000000008152600401610ad3906128d9565b60405180910390fd5b610ae66000611580565b565b600080610af56007611646565b9050620186a08110610b3c576040517f08c379a0000000000000000000000000000000000000000000000000000000008152600401610b3390612959565b60405180910390fd5b610b466007611654565b6000610b526007611646565b9050610b5e848261166a565b8092505050919050565b6000600660009054906101000a900473ffffffffffffffffffffffffffffffffffffffff16905090565b620186a081565b606060018054610ba890612be1565b80601f0160208091040260200160405190810160405280929190818152602001828054610bd490612be1565b8015610c215780601f10610bf657610100808354040283529160200191610c21565b820191906000526020600020905b815481529060010190602001808311610c0457829003601f168201915b5050505050905090565b610c3d610c366110ec565b8383611688565b5050565b610c52610c4c6110ec565b836111ad565b610c91576040517f08c379a0000000000000000000000000000000000000000000000000000000008152600401610c8890612939565b60405180910390fd5b610c9d848484846117f5565b50505050565b6060610cae82611080565b610ced576040517f08c379a0000000000000000000000000000000000000000000000000000000008152600401610ce4906128f9565b60405180910390fd5b6000610cf7611851565b90506000815111610d175760405180602001604052806000815250610d42565b80610d21846118e3565b604051602001610d32929190612676565b6040516020818303038152906040525b915050919050565b60088054610d5790612be1565b80601f0160208091040260200160405190810160405280929190818152602001828054610d8390612be1565b8015610dd05780601f10610da557610100808354040283529160200191610dd0565b820191906000526020600020905b815481529060010190602001808311610db357829003601f168201915b505050505081565b60007f000000000000000000000000000000000000000000000000000000000000000073ffffffffffffffffffffffffffffffffffffffff1663e3a9db1a836040518263ffffffff1660e01b8152600401610e33919061269a565b60206040518083038186803b158015610e4b57600080fd5b505afa158015610e5f573d6000803e3d6000fd5b505050506040513d601f19601f82011682018060405250810190610e83919061231b565b9050919050565b6000600560008473ffffffffffffffffffffffffffffffffffffffff1673ffffffffffffffffffffffffffffffffffffffff16815260200190815260200160002060008373ffffffffffffffffffffffffffffffffffffffff1673ffffffffffffffffffffffffffffffffffffffff16815260200190815260200160002060009054906101000a900460ff16905092915050565b610f266110ec565b73ffffffffffffffffffffffffffffffffffffffff16610f44610b68565b73ffffffffffffffffffffffffffffffffffffffff1614610f9a576040517f08c379a0000000000000000000000000000000000000000000000000000000008152600401610f91906128d9565b60405180910390fd5b600073ffffffffffffffffffffffffffffffffffffffff168173ffffffffffffffffffffffffffffffffffffffff16141561100a576040517f08c379a000000000000000000000000000000000000000000000000000000000815260040161100190612779565b60405180910390fd5b61101381611580565b50565b60007f01ffc9a7000000000000000000000000000000000000000000000000000000007bffffffffffffffffffffffffffffffffffffffffffffffffffffffff1916827bffffffffffffffffffffffffffffffffffffffffffffffffffffffff1916149050919050565b60008073ffffffffffffffffffffffffffffffffffffffff166002600084815260200190815260200160002060009054906101000a900473ffffffffffffffffffffffffffffffffffffffff1673ffffffffffffffffffffffffffffffffffffffff1614159050919050565b600033905090565b816004600083815260200190815260200160002060006101000a81548173ffffffffffffffffffffffffffffffffffffffff021916908373ffffffffffffffffffffffffffffffffffffffff160217905550808273ffffffffffffffffffffffffffffffffffffffff16611167836108f6565b73ffffffffffffffffffffffffffffffffffffffff167f8c5be1e5ebec7d5bd14f71427d1e84f3dd0314c0f7b2291e5b200ac8c7c3b92560405160405180910390a45050565b60006111b882611080565b6111f7576040517f08c379a00000000000000000000000000000000000000000000000000000000081526004016111ee90612819565b60405180910390fd5b6000611202836108f6565b90508073ffffffffffffffffffffffffffffffffffffffff168473ffffffffffffffffffffffffffffffffffffffff16148061124457506112438185610e8a565b5b8061128257508373ffffffffffffffffffffffffffffffffffffffff1661126a846105bb565b73ffffffffffffffffffffffffffffffffffffffff16145b91505092915050565b8273ffffffffffffffffffffffffffffffffffffffff166112ab826108f6565b73ffffffffffffffffffffffffffffffffffffffff1614611301576040517f08c379a00000000000000000000000000000000000000000000000000000000081526004016112f890612799565b60405180910390fd5b600073ffffffffffffffffffffffffffffffffffffffff168273ffffffffffffffffffffffffffffffffffffffff161415611371576040517f08c379a0000000000000000000000000000000000000000000000000000000008152600401611368906127d9565b60405180910390fd5b61137c838383611a90565b6113876000826110f4565b6001600360008573ffffffffffffffffffffffffffffffffffffffff1673ffffffffffffffffffffffffffffffffffffffff16815260200190815260200160002060008282546113d79190612ae5565b925050819055506001600360008473ffffffffffffffffffffffffffffffffffffffff1673ffffffffffffffffffffffffffffffffffffffff168152602001908152602001600020600082825461142e9190612a5e565b92505081905550816002600083815260200190815260200160002060006101000a81548173ffffffffffffffffffffffffffffffffffffffff021916908373ffffffffffffffffffffffffffffffffffffffff160217905550808273ffffffffffffffffffffffffffffffffffffffff168473ffffffffffffffffffffffffffffffffffffffff167fddf252ad1be2c89b69c2b068fc378daa952ba7f163c4a11628f55a4df523b3ef60405160405180910390a46114ed838383611a95565b505050565b7f000000000000000000000000000000000000000000000000000000000000000073ffffffffffffffffffffffffffffffffffffffff166351cff8d9826040518263ffffffff1660e01b815260040161154b91906126b5565b600060405180830381600087803b15801561156557600080fd5b505af1158015611579573d6000803e3d6000fd5b5050505050565b6000600660009054906101000a900473ffffffffffffffffffffffffffffffffffffffff16905081600660006101000a81548173ffffffffffffffffffffffffffffffffffffffff021916908373ffffffffffffffffffffffffffffffffffffffff1602179055508173ffffffffffffffffffffffffffffffffffffffff168173ffffffffffffffffffffffffffffffffffffffff167f8be0079c531659141344cd1fd0a4f28419497f9722a3daafe3b4186f6b6457e060405160405180910390a35050565b600081600001549050919050565b6001816000016000828254019250508190555050565b611684828260405180602001604052806000815250611a9a565b5050565b8173ffffffffffffffffffffffffffffffffffffffff168373ffffffffffffffffffffffffffffffffffffffff1614156116f7576040517f08c379a00000000000000000000000000000000000000000000000000000000081526004016116ee906127f9565b60405180910390fd5b80600560008573ffffffffffffffffffffffffffffffffffffffff1673ffffffffffffffffffffffffffffffffffffffff16815260200190815260200160002060008473ffffffffffffffffffffffffffffffffffffffff1673ffffffffffffffffffffffffffffffffffffffff16815260200190815260200160002060006101000a81548160ff0219169083151502179055508173ffffffffffffffffffffffffffffffffffffffff168373ffffffffffffffffffffffffffffffffffffffff167f17307eab39ab6107e8899845ad3d59bd9653f200f220920489ca2b5937696c31836040516117e8919061271c565b60405180910390a3505050565b61180084848461128b565b61180c84848484611af5565b61184b576040517f08c379a000000000000000000000000000000000000000000000000000000000815260040161184290612759565b60405180910390fd5b50505050565b60606008805461186090612be1565b80601f016020809104026020016040519081016040528092919081815260200182805461188c90612be1565b80156118d95780601f106118ae576101008083540402835291602001916118d9565b820191906000526020600020905b8154815290600101906020018083116118bc57829003601f168201915b5050505050905090565b6060600082141561192b576040518060400160405280600181526020017f30000000000000000000000000000000000000000000000000000000000000008152509050611a8b565b600082905060005b6000821461195d57808061194690612c44565b915050600a826119569190612ab4565b9150611933565b60008167ffffffffffffffff81111561199f577f4e487b7100000000000000000000000000000000000000000000000000000000600052604160045260246000fd5b6040519080825280601f01601f1916602001820160405280156119d15781602001600182028036833780820191505090505b5090505b60008514611a84576001826119ea9190612ae5565b9150600a856119f99190612c8d565b6030611a059190612a5e565b60f81b818381518110611a41577f4e487b7100000000000000000000000000000000000000000000000000000000600052603260045260246000fd5b60200101907effffffffffffffffffffffffffffffffffffffffffffffffffffffffffffff1916908160001a905350600a85611a7d9190612ab4565b94506119d5565b8093505050505b919050565b505050565b505050565b611aa48383611c8c565b611ab16000848484611af5565b611af0576040517f08c379a0000000000000000000000000000000000000000000000000000000008152600401611ae790612759565b60405180910390fd5b505050565b6000611b168473ffffffffffffffffffffffffffffffffffffffff16611e66565b15611c7f578373ffffffffffffffffffffffffffffffffffffffff1663150b7a02611b3f6110ec565b8786866040518563ffffffff1660e01b8152600401611b6194939291906126d0565b602060405180830381600087803b158015611b7b57600080fd5b505af1925050508015611bac57506040513d601f19601f82011682018060405250810190611ba99190612288565b60015b611c2f573d8060008114611bdc576040519150601f19603f3d011682016040523d82523d6000602084013e611be1565b606091505b50600081511415611c27576040517f08c379a0000000000000000000000000000000000000000000000000000000008152600401611c1e90612759565b60405180910390fd5b805181602001fd5b63150b7a0260e01b7bffffffffffffffffffffffffffffffffffffffffffffffffffffffff1916817bffffffffffffffffffffffffffffffffffffffffffffffffffffffff191614915050611c84565b600190505b949350505050565b600073ffffffffffffffffffffffffffffffffffffffff168273ffffffffffffffffffffffffffffffffffffffff161415611cfc576040517f08c379a0000000000000000000000000000000000000000000000000000000008152600401611cf390612899565b60405180910390fd5b611d0581611080565b15611d45576040517f08c379a0000000000000000000000000000000000000000000000000000000008152600401611d3c906127b9565b60405180910390fd5b611d5160008383611a90565b6001600360008473ffffffffffffffffffffffffffffffffffffffff1673ffffffffffffffffffffffffffffffffffffffff1681526020019081526020016000206000828254611da19190612a5e565b92505081905550816002600083815260200190815260200160002060006101000a81548173ffffffffffffffffffffffffffffffffffffffff021916908373ffffffffffffffffffffffffffffffffffffffff160217905550808273ffffffffffffffffffffffffffffffffffffffff16600073ffffffffffffffffffffffffffffffffffffffff167fddf252ad1be2c89b69c2b068fc378daa952ba7f163c4a11628f55a4df523b3ef60405160405180910390a4611e6260008383611a95565b5050565b6000808273ffffffffffffffffffffffffffffffffffffffff163b119050919050565b828054611e9590612be1565b90600052602060002090601f016020900481019282611eb75760008555611efe565b82601f10611ed057805160ff1916838001178555611efe565b82800160010185558215611efe579182015b82811115611efd578251825591602001919060010190611ee2565b5b509050611f0b9190611f0f565b5090565b5b80821115611f28576000816000905550600101611f10565b5090565b6000611f3f611f3a846129b9565b612994565b905082815260208101848484011115611f5757600080fd5b611f62848285612b9f565b509392505050565b6000611f7d611f78846129ea565b612994565b905082815260208101848484011115611f9557600080fd5b611fa0848285612b9f565b509392505050565b600081359050611fb78161320c565b92915050565b600081359050611fcc81613223565b92915050565b600081359050611fe18161323a565b92915050565b600081359050611ff681613251565b92915050565b60008151905061200b81613251565b92915050565b600082601f83011261202257600080fd5b8135612032848260208601611f2c565b91505092915050565b600082601f83011261204c57600080fd5b813561205c848260208601611f6a565b91505092915050565b60008135905061207481613268565b92915050565b60008151905061208981613268565b92915050565b6000602082840312156120a157600080fd5b60006120af84828501611fa8565b91505092915050565b6000602082840312156120ca57600080fd5b60006120d884828501611fbd565b91505092915050565b600080604083850312156120f457600080fd5b600061210285828601611fa8565b925050602061211385828601611fa8565b9150509250929050565b60008060006060848603121561213257600080fd5b600061214086828701611fa8565b935050602061215186828701611fa8565b925050604061216286828701612065565b9150509250925092565b6000806000806080858703121561218257600080fd5b600061219087828801611fa8565b94505060206121a187828801611fa8565b93505060406121b287828801612065565b925050606085013567ffffffffffffffff8111156121cf57600080fd5b6121db87828801612011565b91505092959194509250565b600080604083850312156121fa57600080fd5b600061220885828601611fa8565b925050602061221985828601611fd2565b9150509250929050565b6000806040838503121561223657600080fd5b600061224485828601611fa8565b925050602061225585828601612065565b9150509250929050565b60006020828403121561227157600080fd5b600061227f84828501611fe7565b91505092915050565b60006020828403121561229a57600080fd5b60006122a884828501611ffc565b91505092915050565b6000602082840312156122c357600080fd5b600082013567ffffffffffffffff8111156122dd57600080fd5b6122e98482850161203b565b91505092915050565b60006020828403121561230457600080fd5b600061231284828501612065565b91505092915050565b60006020828403121561232d57600080fd5b600061233b8482850161207a565b91505092915050565b61234d81612b2b565b82525050565b61235c81612b19565b82525050565b61236b81612b3d565b82525050565b600061237c82612a1b565b6123868185612a31565b9350612396818560208601612bae565b61239f81612d7a565b840191505092915050565b60006123b582612a26565b6123bf8185612a42565b93506123cf818560208601612bae565b6123d881612d7a565b840191505092915050565b60006123ee82612a26565b6123f88185612a53565b9350612408818560208601612bae565b80840191505092915050565b6000612421603283612a42565b915061242c82612d8b565b604082019050919050565b6000612444602683612a42565b915061244f82612dda565b604082019050919050565b6000612467602583612a42565b915061247282612e29565b604082019050919050565b600061248a601c83612a42565b915061249582612e78565b602082019050919050565b60006124ad602483612a42565b91506124b882612ea1565b604082019050919050565b60006124d0601983612a42565b91506124db82612ef0565b602082019050919050565b60006124f3602c83612a42565b91506124fe82612f19565b604082019050919050565b6000612516603883612a42565b915061252182612f68565b604082019050919050565b6000612539602a83612a42565b915061254482612fb7565b604082019050919050565b600061255c602983612a42565b915061256782613006565b604082019050919050565b600061257f602083612a42565b915061258a82613055565b602082019050919050565b60006125a2602c83612a42565b91506125ad8261307e565b604082019050919050565b60006125c5602083612a42565b91506125d0826130cd565b602082019050919050565b60006125e8602f83612a42565b91506125f3826130f6565b604082019050919050565b600061260b602183612a42565b915061261682613145565b604082019050919050565b600061262e603183612a42565b915061263982613194565b604082019050919050565b6000612651601283612a42565b915061265c826131e3565b602082019050919050565b61267081612b95565b82525050565b600061268282856123e3565b915061268e82846123e3565b91508190509392505050565b60006020820190506126af6000830184612353565b92915050565b60006020820190506126ca6000830184612344565b92915050565b60006080820190506126e56000830187612353565b6126f26020830186612353565b6126ff6040830185612667565b81810360608301526127118184612371565b905095945050505050565b60006020820190506127316000830184612362565b92915050565b6000602082019050818103600083015261275181846123aa565b905092915050565b6000602082019050818103600083015261277281612414565b9050919050565b6000602082019050818103600083015261279281612437565b9050919050565b600060208201905081810360008301526127b28161245a565b9050919050565b600060208201905081810360008301526127d28161247d565b9050919050565b600060208201905081810360008301526127f2816124a0565b9050919050565b60006020820190508181036000830152612812816124c3565b9050919050565b60006020820190508181036000830152612832816124e6565b9050919050565b6000602082019050818103600083015261285281612509565b9050919050565b600060208201905081810360008301526128728161252c565b9050919050565b600060208201905081810360008301526128928161254f565b9050919050565b600060208201905081810360008301526128b281612572565b9050919050565b600060208201905081810360008301526128d281612595565b9050919050565b600060208201905081810360008301526128f2816125b8565b9050919050565b60006020820190508181036000830152612912816125db565b9050919050565b60006020820190508181036000830152612932816125fe565b9050919050565b6000602082019050818103600083015261295281612621565b9050919050565b6000602082019050818103600083015261297281612644565b9050919050565b600060208201905061298e6000830184612667565b92915050565b600061299e6129af565b90506129aa8282612c13565b919050565b6000604051905090565b600067ffffffffffffffff8211156129d4576129d3612d4b565b5b6129dd82612d7a565b9050602081019050919050565b600067ffffffffffffffff821115612a0557612a04612d4b565b5b612a0e82612d7a565b9050602081019050919050565b600081519050919050565b600081519050919050565b600082825260208201905092915050565b600082825260208201905092915050565b600081905092915050565b6000612a6982612b95565b9150612a7483612b95565b9250827fffffffffffffffffffffffffffffffffffffffffffffffffffffffffffffffff03821115612aa957612aa8612cbe565b5b828201905092915050565b6000612abf82612b95565b9150612aca83612b95565b925082612ada57612ad9612ced565b5b828204905092915050565b6000612af082612b95565b9150612afb83612b95565b925082821015612b0e57612b0d612cbe565b5b828203905092915050565b6000612b2482612b75565b9050919050565b6000612b3682612b75565b9050919050565b60008115159050919050565b60007fffffffff0000000000000000000000000000000000000000000000000000000082169050919050565b600073ffffffffffffffffffffffffffffffffffffffff82169050919050565b6000819050919050565b82818337600083830152505050565b60005b83811015612bcc578082015181840152602081019050612bb1565b83811115612bdb576000848401525b50505050565b60006002820490506001821680612bf957607f821691505b60208210811415612c0d57612c0c612d1c565b5b50919050565b612c1c82612d7a565b810181811067ffffffffffffffff82111715612c3b57612c3a612d4b565b5b80604052505050565b6000612c4f82612b95565b91507fffffffffffffffffffffffffffffffffffffffffffffffffffffffffffffffff821415612c8257612c81612cbe565b5b600182019050919050565b6000612c9882612b95565b9150612ca383612b95565b925082612cb357612cb2612ced565b5b828206905092915050565b7f4e487b7100000000000000000000000000000000000000000000000000000000600052601160045260246000fd5b7f4e487b7100000000000000000000000000000000000000000000000000000000600052601260045260246000fd5b7f4e487b7100000000000000000000000000000000000000000000000000000000600052602260045260246000fd5b7f4e487b7100000000000000000000000000000000000000000000000000000000600052604160045260246000fd5b6000601f19601f8301169050919050565b7f4552433732313a207472616e7366657220746f206e6f6e20455243373231526560008201527f63656976657220696d706c656d656e7465720000000000000000000000000000602082015250565b7f4f776e61626c653a206e6577206f776e657220697320746865207a65726f206160008201527f6464726573730000000000000000000000000000000000000000000000000000602082015250565b7f4552433732313a207472616e736665722066726f6d20696e636f72726563742060008201527f6f776e6572000000000000000000000000000000000000000000000000000000602082015250565b7f4552433732313a20746f6b656e20616c7265616479206d696e74656400000000600082015250565b7f4552433732313a207472616e7366657220746f20746865207a65726f2061646460008201527f7265737300000000000000000000000000000000000000000000000000000000602082015250565b7f4552433732313a20617070726f766520746f2063616c6c657200000000000000600082015250565b7f4552433732313a206f70657261746f7220717565727920666f72206e6f6e657860008201527f697374656e7420746f6b656e0000000000000000000000000000000000000000602082015250565b7f4552433732313a20617070726f76652063616c6c6572206973206e6f74206f7760008201527f6e6572206e6f7220617070726f76656420666f7220616c6c0000000000000000602082015250565b7f4552433732313a2062616c616e636520717565727920666f7220746865207a6560008201527f726f206164647265737300000000000000000000000000000000000000000000602082015250565b7f4552433732313a206f776e657220717565727920666f72206e6f6e657869737460008201527f656e7420746f6b656e0000000000000000000000000000000000000000000000602082015250565b7f4552433732313a206d696e7420746f20746865207a65726f2061646472657373600082015250565b7f4552433732313a20617070726f76656420717565727920666f72206e6f6e657860008201527f697374656e7420746f6b656e0000000000000000000000000000000000000000602082015250565b7f4f776e61626c653a2063616c6c6572206973206e6f7420746865206f776e6572600082015250565b7f4552433732314d657461646174613a2055524920717565727920666f72206e6f60008201527f6e6578697374656e7420746f6b656e0000000000000000000000000000000000602082015250565b7f4552433732313a20617070726f76616c20746f2063757272656e74206f776e6560008201527f7200000000000000000000000000000000000000000000000000000000000000602082015250565b7f4552433732313a207472616e736665722063616c6c6572206973206e6f74206f60008201527f776e6572206e6f7220617070726f766564000000000000000000000000000000602082015250565b7f4d617820737570706c7920726561636865640000000000000000000000000000600082015250565b61321581612b19565b811461322057600080fd5b50565b61322c81612b2b565b811461323757600080fd5b50565b61324381612b3d565b811461324e57600080fd5b50565b61325a81612b49565b811461326557600080fd5b50565b61327181612b95565b811461327c57600080fd5b5056fea26469706673582212206972ba939ddbeafed9ba5d337692cbee0b721a4cb69a091cfafebb29289ca0d764736f6c63430008010033608060405234801561001057600080fd5b5061002d61002261003260201b60201c565b61003a60201b60201c565b6100fe565b600033905090565b60008060009054906101000a900473ffffffffffffffffffffffffffffffffffffffff169050816000806101000a81548173ffffffffffffffffffffffffffffffffffffffff021916908373ffffffffffffffffffffffffffffffffffffffff1602179055508173ffffffffffffffffffffffffffffffffffffffff168173ffffffffffffffffffffffffffffffffffffffff167f8be0079c531659141344cd1fd0a4f28419497f9722a3daafe3b4186f6b6457e060405160405180910390a35050565b610bfc8061010d6000396000f3fe6080604052600436106100555760003560e01c806351cff8d91461005a578063715018a6146100835780638da5cb5b1461009a578063e3a9db1a146100c5578063f2fde38b14610102578063f340fa011461012b575b600080fd5b34801561006657600080fd5b50610081600480360381019061007c91906107f5565b610147565b005b34801561008f57600080fd5b506100986102c7565b005b3480156100a657600080fd5b506100af61034f565b6040516100bc9190610900565b60405180910390f35b3480156100d157600080fd5b506100ec60048036038101906100e791906107cc565b610378565b6040516100f9919061099b565b60405180910390f35b34801561010e57600080fd5b50610129600480360381019061012491906107cc565b6103c1565b005b610145600480360381019061014091906107cc565b6104b9565b005b61014f6105e2565b73ffffffffffffffffffffffffffffffffffffffff1661016d61034f565b73ffffffffffffffffffffffffffffffffffffffff16146101c3576040517f08c379a00000000000000000000000000000000000000000000000000000000081526004016101ba9061097b565b60405180910390fd5b6000600160008373ffffffffffffffffffffffffffffffffffffffff1673ffffffffffffffffffffffffffffffffffffffff1681526020019081526020016000205490506000600160008473ffffffffffffffffffffffffffffffffffffffff1673ffffffffffffffffffffffffffffffffffffffff16815260200190815260200160002081905550610275818373ffffffffffffffffffffffffffffffffffffffff166105ea90919063ffffffff16565b8173ffffffffffffffffffffffffffffffffffffffff167f7084f5476618d8e60b11ef0d7d3f06914655adb8793e28ff7f018d4c76d505d5826040516102bb919061099b565b60405180910390a25050565b6102cf6105e2565b73ffffffffffffffffffffffffffffffffffffffff166102ed61034f565b73ffffffffffffffffffffffffffffffffffffffff1614610343576040517f08c379a000000000000000000000000000000000000000000000000000000000815260040161033a9061097b565b60405180910390fd5b61034d60006106de565b565b60008060009054906101000a900473ffffffffffffffffffffffffffffffffffffffff16905090565b6000600160008373ffffffffffffffffffffffffffffffffffffffff1673ffffffffffffffffffffffffffffffffffffffff168152602001908152602001600020549050919050565b6103c96105e2565b73ffffffffffffffffffffffffffffffffffffffff166103e761034f565b73ffffffffffffffffffffffffffffffffffffffff161461043d576040517f08c379a00000000000000000000000000000000000000000000000000000000081526004016104349061097b565b60405180910390fd5b600073ffffffffffffffffffffffffffffffffffffffff168173ffffffffffffffffffffffffffffffffffffffff1614156104ad576040517f08c379a00000000000000000000000000000000000000000000000000000000081526004016104a49061091b565b60405180910390fd5b6104b6816106de565b50565b6104c16105e2565b73ffffffffffffffffffffffffffffffffffffffff166104df61034f565b73ffffffffffffffffffffffffffffffffffffffff1614610535576040517f08c379a000000000000000000000000000000000000000000000000000000000815260040161052c9061097b565b60405180910390fd5b600034905080600160008473ffffffffffffffffffffffffffffffffffffffff1673ffffffffffffffffffffffffffffffffffffffff168152602001908152602001600020600082825461058991906109d2565b925050819055508173ffffffffffffffffffffffffffffffffffffffff167f2da466a7b24304f47e87fa2e1e5a81b9831ce54fec19055ce277ca2f39ba42c4826040516105d6919061099b565b60405180910390a25050565b600033905090565b8047101561062d576040517f08c379a00000000000000000000000000000000000000000000000000000000081526004016106249061095b565b60405180910390fd5b60008273ffffffffffffffffffffffffffffffffffffffff1682604051610653906108eb565b60006040518083038185875af1925050503d8060008114610690576040519150601f19603f3d011682016040523d82523d6000602084013e610695565b606091505b50509050806106d9576040517f08c379a00000000000000000000000000000000000000000000000000000000081526004016106d09061093b565b60405180910390fd5b505050565b60008060009054906101000a900473ffffffffffffffffffffffffffffffffffffffff169050816000806101000a81548173ffffffffffffffffffffffffffffffffffffffff021916908373ffffffffffffffffffffffffffffffffffffffff1602179055508173ffffffffffffffffffffffffffffffffffffffff168173ffffffffffffffffffffffffffffffffffffffff167f8be0079c531659141344cd1fd0a4f28419497f9722a3daafe3b4186f6b6457e060405160405180910390a35050565b6000813590506107b181610b98565b92915050565b6000813590506107c681610baf565b92915050565b6000602082840312156107de57600080fd5b60006107ec848285016107a2565b91505092915050565b60006020828403121561080757600080fd5b6000610815848285016107b7565b91505092915050565b61082781610a28565b82525050565b600061083a6026836109c1565b915061084582610aa5565b604082019050919050565b600061085d603a836109c1565b915061086882610af4565b604082019050919050565b6000610880601d836109c1565b915061088b82610b43565b602082019050919050565b60006108a36020836109c1565b91506108ae82610b6c565b602082019050919050565b60006108c66000836109b6565b91506108d182610b95565b600082019050919050565b6108e581610a6c565b82525050565b60006108f6826108b9565b9150819050919050565b6000602082019050610915600083018461081e565b92915050565b600060208201905081810360008301526109348161082d565b9050919050565b6000602082019050818103600083015261095481610850565b9050919050565b6000602082019050818103600083015261097481610873565b9050919050565b6000602082019050818103600083015261099481610896565b9050919050565b60006020820190506109b060008301846108dc565b92915050565b600081905092915050565b600082825260208201905092915050565b60006109dd82610a6c565b91506109e883610a6c565b9250827fffffffffffffffffffffffffffffffffffffffffffffffffffffffffffffffff03821115610a1d57610a1c610a76565b5b828201905092915050565b6000610a3382610a4c565b9050919050565b6000610a4582610a4c565b9050919050565b600073ffffffffffffffffffffffffffffffffffffffff82169050919050565b6000819050919050565b7f4e487b7100000000000000000000000000000000000000000000000000000000600052601160045260246000fd5b7f4f776e61626c653a206e6577206f776e657220697320746865207a65726f206160008201527f6464726573730000000000000000000000000000000000000000000000000000602082015250565b7f416464726573733a20756e61626c6520746f2073656e642076616c75652c207260008201527f6563697069656e74206d61792068617665207265766572746564000000000000602082015250565b7f416464726573733a20696e73756666696369656e742062616c616e6365000000600082015250565b7f4f776e61626c653a2063616c6c6572206973206e6f7420746865206f776e6572600082015250565b50565b610ba181610a28565b8114610bac57600080fd5b50565b610bb881610a3a565b8114610bc357600080fd5b5056fea264697066735822122073b307195fd92b28f2600edbbb914776573abe0392628b3f8a5ee2d6ab956cfa64736f6c63430008010033",
  "linkReferences": {},
  "deployedLinkReferences": {}
}